:020000040800F2
:100000007809002099010008050200080102000893
:1000100003020008FD010008C10200080000000002
:100020000000000000000000000000000F020008B7
:10003000FF010008000000000D0200081102000886
:10004000B3010008B3010008B3010008B3010008C0
:10005000B3010008B3010008B3010008B3010008B0
:10006000B3010008B3010008B3010008B3010008A0
:10007000B3010008B3010008B3010008B301000890
:10008000B3010008B3010008B3010008B301000880
:10009000B3010008B3010008B3010008B301000870
:1000A000B3010008B3010008B3010008B301000860
:1000B000B3010008B3010008B3010008B301000850
:1000C000B3010008B3010008B3010008B301000840
:1000D000B301000869020008B3010008B301000879
:1000E000B3010008B3010008B3010008B301000820
:1000F000B3010008B3010008B3010008B301000810
:10010000B3010008B3010008B3010008B3010008FF
:10011000B3010008B301000865020008B30100083C
:10012000B3010008B3010008B3010008B3010008DF
:10013000B3010008B3010008B3010008B3010008CF
:1001400000000000000000000000000000000000AF
:10015000B3010008B3010008B3010008B3010008AF
:10016000B3010008B3010008B3010008B30100089F
:10017000B3010008B3010008B3010008B30100088F
:10018000B3010008DFF80CD000F026F80048004763
:100190009107000878090020064880470648004774
:1001A000FEE7FEE7FEE7FEE7FEE7FEE7FEE7FEE727
:1001B000FEE7FEE7150200088501000810B50022E1
:1001C00000E0521C835C8C5CA34201D1002BF8D16F
:1001D000D8B2E1B2401A10BD064C074D06E0E06807
:1001E00040F0010394E8070098471034AC42F6D37E
:1001F000FFF7CCFF940E0008B40E0008FEE770472E
:10020000FEE7FEE77047012100F086B870477047AF
:10021000704700001248D0F8801041F47001C0F817
:100220008010BC490A6842F001020A600A6892071D
:10023000FCD54A6822F003024A604A6812F00C0FAB
:10024000FBD10A68B44B1A400A6000224A600A6374
:100250004FF41F028A604FF000610160704700BFD9
:1002600008ED00E070470000B0B5144C2021204696
:1002700000F030FC90B1DA4DA888B0F5967F84BFCD
:100280000020A880204600F094FBA9884A1CAA8080
:100290002A6850542046202100F09BFB2046102164
:1002A00000F018FC40B1CE48012181712046102198
:1002B000BDE8B04000F08DBBB0BD00BF00380140CC
:1002C000FEE70000A54900F00F000A6822F0F002E6
:1002D00042EA001008607047A04900F007000A6871
:1002E00022F4E06242EA0020086070479B4900F077
:1002F00007000A6822F4605242EAC0200860704792
:10030000044901280A6822F0300208BF30320A602E
:10031000704700BF54100240042828D8DFE800F0DE
:100320000309121C22007B48026861F3000202608C
:10033000704701F0010077490A6822F4803242EAEE
:10034000004007E001F0010072490A6822F0807263
:1003500042EA0060086070476E48026A61F300027A
:10036000026270476B48426A61F300024262704762
:10037000B0B528490A68C2F38103274A022B08D086
:1003800023BB0B6D9B0521D5CB6A9B0148BF244A3B
:100390001CE00B680C680D68C5F34175C4F3834419
:1003A0000DB90F2C02D12D01013500E002252C449E
:1003B000DB0301D4194A08E00B689B0305D50B6DDC
:1003C000C3F301330233B2FBF3F26243026015A4BC
:1003D0000B68C3F30313E35C164CDA4042600B680E
:1003E000C3F30223E35C22FA03F3C3600B68C3F395
:1003F000C223E35C0424DA4082600B68096804EAE3
:100400009363C1F3813119440BA3595CB2FBF1F141
:100410000161B0BD0410024000127A0000093D00E5
:10042000006CDC0200000000000000000102030478
:1004300006070809820E000802040608020C0810CC
:10044000344A010C00F01F00895821FA00F000F036
:10045000010070472F490020030B0A68022B03D8C4
:10046000013012F40032F7D00868C0F34040704702
:1004700000F01F020123000C9340264A01298158F5
:1004800014BF994319438150704700BF10B5334BD7
:100490001C6858B144F4803401281C601C6814BFE7
:1004A00044F4003024F40030186006E024F4803076
:1004B0001860D86A40F00070D862186861F39540FF
:1004C0001860C1F30210196860F35E711960186852
:1004D00020F0004040EAC270186010BD0D4801686D
:1004E00041F00101016001688907FCD5416821F0F4
:1004F00003014160416811F00C0FFBD10168064A0D
:10050000114001600021416001634FF41F018160CF
:10051000704700BF00100240FFFFF2FE0F490A685B
:1005200060F301020A6000BF00BF00BF00BF00BF50
:1005300000BF00BF00BF00BF00BF00BF00BF00BFC3
:1005400000BF00BF00BF00BF00BF00BF00BF7047BB
:10055000F6480068C0F38100704700BF04100240F5
:10056000B0B539B114462AB140690D460DA1FFF767
:1005700025FE10B100242046B0BD1948817959B13B
:1005800000218288914204D20268525C6A5401318F
:10059000F7E72280012400E00024114800F024F84D
:1005A000E9E700BF7573617274310000E0B500685F
:1005B0008DF807100DF10701012200F0EFFA01207C
:1005C0008CBD80B5006800F0E9FA012080BD000014
:1005D000034800218171818002490160704700BF9A
:1005E000400000204C0000200021002283889A4215
:1005F00003D2036899540132F8E7002181718180A8
:10060000704700007CB56E4604460D46304600F04B
:1006100045F81E483146019020890090606800F03E
:1006200045F81B4831460190208A0090E06800F0B0
:100630003DF86A78AB78E968206800F0F7F920683F
:10064000012100F0A2FA2068012100F095FAE97872
:10065000206800F077FA2068002100F0C7F92978B7
:1006600094F91200002200F0ABF80A4D2068012234
:10067000691C00F021FA20682946012200F01CFACA
:100680002068012100F09CF901207CBD00040802D3
:100690000004000204000C0041617047024A4FF65A
:1006A000FF71C0E90012704700040001F0B58B79BA
:1006B0000A88032B0AD05BB94979282913D0182955
:1006C00012BF01F00F01026108210EE000210CE0D1
:1006D0000C79C97903F0080304F0040401F0030164
:1006E0002344194401E042610821130616D0002377
:1006F0000F240025082D11D022FA05F6F6070AD09E
:10070000076804FA03F627EA0606066001FA03F60C
:1007100007683E43066004330135EBE7B2F5807F9E
:1007200017D3120A00230F240025082D11D022FA16
:1007300005F6F6070AD0476804FA03F627EA060624
:10074000466001FA03F647683E43466004330135CC
:10075000EBE7F0BD70B5C0F30725C0F307424FF0DB
:10076000FF3355FAA0F503FA02F4C5F12005EB407A
:10077000064D2340040EC0B266599040002926EA77
:10078000030318BF0343635170BD00BF0000014065
:1007900000F0ACFA00F08AFA00F022FA00F050FA09
:1007A00000F0E8FA00F022FA00F020FB00F002FB73
:1007B00001A000F06FF8FEE77573617274310000FC
:1007C000F0B51D4B4FF0FF361C68C4F30224E51E44
:1007D00084F0070438BF002506FA05F7BA43042C55
:1007E00028BF042406FA04F4A143A94011430901D7
:1007F000B0F1FF3F0CDD094A831883F8001300F0C5
:100800001F010123400903FA01F142F82010F0BD55
:1008100000F00F0018440172F0BD00BF00E100E0DD
:1008200005494FF6FF030A681A4060F30A2203489D
:1008300010430860704700BF0CED00E00000FA05AF
:10084000B0B5134C25204FF400714FF4967200237D
:10085000A074154821814FF4E1312546C4E90723EE
:10086000616260614FF480602082F34800F540517E
:10087000E060C4E90010072045F8180FFFF7A8FE54
:10088000A06A294602682046BDE8B040104700BF74
:100890000000002080B50449FFF790FC00B180BD46
:1008A000BDE88040FFF7CCBF8A0E0008B0B51E4CF3
:1008B0001E4DFFF74DFE022808D048BB286D80056D
:1008C00026D5E86A800148BF1A4C21E028682968CB
:1008D0002A68C2F34172C1F383410AB90F2902D1D8
:1008E0001201013200E002221144C00303D4104877
:1008F00001FB00F40CE02868800301D44C4307E0BE
:10090000286DC0F301300230B4FBF0F000FB01F4BD
:1009100009480AA204602968C1F30311515C24FA52
:1009200001F10160B0BD00BF00127A000410024066
:1009300000093D00006CDC022C00002000000000DB
:100940000000000001020304060708090449042806
:100950000A6822F0040208BF04320A60704700BF30
:1009600010E000E0C1628262416941F00101416131
:100970007047026801F0070122F0700242EA01119B
:1009800001607047026861F300020260704702680C
:1009900001F0010122F0800242EAC11101607047BA
:1009A000426801F0070122F0700242EA0111416041
:1009B0007047406880B270476FF35F2141607047B5
:1009C000C26801F0010122F4005242EA4131C160E3
:1009D0007047CA0607BFC943016001684068704795
:1009E0000068084018BF01207047000003291BD889
:1009F000DFE801F002060E12416921F4807102E085
:100A0000416941F480714161416921F400710AE05A
:100A1000416921F4807102E0416941F480714161D2
:100A2000416941F400714161704700002DE9F041D6
:100A300086B001AD0446984616460F462846FFF795
:100A400097FC1A48844205D01948844202D01948BC
:100A5000844202D105F1080001E005F10C000068B4
:100A60000A2100EB80004000B0FBF7F0B0FBF1F191
:100A700001EB8102A0EB4200042888BF0131A0688D
:100A8000C1EA0000A06006F00100E16821F4805195
:100A900041EA0030E06008F00300216921F4405190
:100AA00041EA0030206106B0BDE8F0810038014025
:100AB000006401400060014010B501F01F030124F3
:100AC000090C012A0A5804FA03F314BF9A431A4383
:100AD0000A5010BD4A1E072A10D910291CD02029FF
:100AE0001DD040291ED080291ED0B1F5807F1ED098
:100AF000B1F5007F1FD14269920A1AE0DFE802F0E7
:100B0000040A1B0A1B1B1B07C268120A11E0C268F9
:100B1000920612D442690CE0C268120909E0C26868
:100B2000520906E0C26803E0C268D20901E0026926
:100B30009209D20701D1002070470068084018BF11
:100B40000120704702290AD001290CD099B9C16847
:100B500021F40071C160C16821F480610AE0C168BC
:100B600041F4007102E0C16821F40071C160C16804
:100B700041F48061C1607047C26801F0010122F058
:100B8000040242EA8101C1607047C26801F00101BC
:100B900022F0080242EAC101C1607047F8B514466C
:100BA0000D46064630468021FFF71AFF0028F9D08F
:100BB00030468021FFF70DFF0027A74208BFF8BD90
:100BC000E95D3046FFF7F8FE30464021FFF708FFA9
:100BD0000028F9D030464021FFF7FBFE0137ECE753
:100BE00001480121FFF7B6BD020310302DE9FE4395
:100BF00001AC2046FFF752FD0F4D4FF4C0514FF4AA
:100C0000C0592846FFF748FD05F5806630214FF0B2
:100C100030083046FFF740FD084F28462146CDE911
:100C20000197FFF743FD30462146CDE90187FFF7E5
:100C30003DFDBDE8FE8300BF000801400004100236
:100C400080B50320FFF7ECFD174801680021017310
:100C500002684173026881730268C1740268017599
:100C6000026881750268C2F30222D31E38BF0B46A8
:100C700082F007014FF0FF32042928BF042102FA55
:100C800001F10F2222EA0101002299400901C175F8
:100C900025200721FFF794FD362008210022BDE81A
:100CA0008040FFF78DBD00BF0CED00E0B0B50C4DEE
:100CB0004FF4C0100121A8470A4C01212046A84743
:100CC000601C0121A847E01C0121A84704F10C0089
:100CD0000121A847044801212A46BDE8B040104739
:100CE000710400080200180004001C0010B5FFF792
:100CF000F5FB0420FFF787FA1D4C2046FFF7A0FB09
:100D00000128FAD10120FFF77EFAFFF7A3FB0028A4
:100D1000FBD00020FFF777FA0120FFF791FB0128B5
:100D2000FAD100203B210122FFF7B0FB0220FFF7A0
:100D30006AFA1920FFF784FB0128FAD10020FFF797
:100D4000C1FA0420FFF7D2FA0420FFF7C5FA012008
:100D5000FFF7D6FA0220FFF7E1FBFFF7F9FB0228C5
:100D6000FBD10020FFF7CCFABDE81040FFF79EBD95
:100D700001002400B0B586B001A8FFF7F9FA029C83
:100D800000200025FFF7E2FD07480849B4FBF0F01A
:100D9000086007486FF07F4185604160016841F05D
:100DA0000101016006B0B0BD00127A0048000020C9
:100DB00010E000E010B50C4C00212046FFF7D9FDF3
:100DC00020460121FFF7E3FD204640F2E731EF2204
:100DD000FFF7C8FD20460021FFF7E2FD2046012174
:100DE000BDE81040FFF7CEBD001000407CB56D4659
:100DF0002846FFF753FC1848184C294601904FF439
:100E00000070A4F5405600903046FFF74FFC1448A0
:100E1000294601904FF4806000903046FFF746FC71
:100E200020464FF4E13100220023FFF7FFFD20466A
:100E30000121FFF7AAFE20460121FFF79DFE204673
:100E40000021FFF77FFE20460021FFF7CFFD20465F
:100E50000121FFF7B5FD7CBD000408020038014008
:100E60000004000202E008C8121F08C1002AFAD1DB
:100E700070477047002001E001C1121F002AFBD11A
:100E80007047000000000102030475736172743141
:100E900000000000B80E0008000000204000000024
:100EA000640E0008F80E0008400000203809000019
:100EB000740E0008000000000000000000000000A8
:100EC0000000000000000000000000000000000022
:100ED0000000000000000000000000000000000012
:100EE0003000002000127A0005060008AD05000859
:080EF00061050008C3050008BC
:040000050800018569
:00000001FF
