:020000040800F2
:10000000480B0020990100080502000801020008C1
:1000100003020008FD0100080503000800000000BD
:100020000000000000000000000000002D02000899
:10003000FF010008000000002B0200082F0200084A
:10004000B3010008B3010008B3010008B3010008C0
:10005000B3010008B3010008B3010008B3010008B0
:10006000B3010008B3010008B3010008B3010008A0
:10007000B3010008B3010008B3010008B301000890
:10008000B3010008B3010008B3010008B301000880
:10009000B3010008B3010008B3010008B301000870
:1000A000B3010008B3010008B3010008B301000860
:1000B000B3010008B3010008B3010008B301000850
:1000C000B3010008B3010008B3010008B301000840
:1000D000B3010008BD020008B3010008B301000825
:1000E000B3010008B3010008B3010008B301000820
:1000F000B3010008B3010008B3010008B301000810
:10010000B3010008B3010008B3010008B3010008FF
:10011000B3010008B301000881020008B301000820
:10012000B3010008B3010008B3010008B3010008DF
:10013000B3010008B3010008B3010008B3010008CF
:1001400000000000000000000000000000000000AF
:10015000B3010008B3010008B3010008B3010008AF
:10016000B3010008B3010008B3010008B30100089F
:10017000B3010008B3010008B3010008B30100088F
:10018000B3010008DFF80CD000F026F80048004763
:1001900095080008480B002006488047064800479D
:1001A000FEE7FEE7FEE7FEE7FEE7FEE7FEE7FEE727
:1001B000FEE7FEE7310200088501000810B50022C5
:1001C00000E0521C835C8C5CA34201D1002BF8D16F
:1001D000D8B2E1B2401A10BD064C074D06E0E06807
:1001E00040F0010394E8070098471034AC42F6D37E
:1001F000FFF7CCFF0011000820110008FEE7704750
:10020000FEE7FEE7704700F007004FF0FF33C21E25
:1002100080F0070038BF0022042828BF042003FA1A
:1002200000F021EA00009040704770477047704727
:100230001248D0F8801041F47001C0F88010D04905
:100240000A6842F001020A600A689207FCD54A680F
:1002500022F003024A604A6812F00C0FFBD10A68D0
:10026000C84B1A400A6000224A600A634FF41F021A
:100270008A604FF000610160704700BF08ED00E048
:1002800010B50D4C0121204600F06AFC98B1E248FF
:10029000017B51B141890131418189B2082904D3DF
:1002A0000021012201738271418120460121BDE8B4
:1002B000104000F046BC10BD00100040B0B5104C1E
:1002C0002021204600F0F8FCC0B1D34D287B08B9AE
:1002D00001202873002068812889A988814207D2DB
:1002E000204600F059FCA9884A1CAA802A6850546C
:1002F00020462021BDE8B04000F05EBCB0BD00BF8C
:1003000000380140FEE70000AF4900F00F000A6826
:1003100022F0F00242EA001008607047AA4900F09B
:1003200007000A6822F4E06242EA00200860704791
:10033000A54900F007000A6822F4605242EAC02092
:1003400008607047044901280A6822F0300308BF9A
:1003500042F030030B60704754100240042888BFFD
:100360007047DFE800F00309131D2300844802688A
:1003700061F300020260704701F0010080490A68E1
:1003800022F4803242EA00400860704701F0010028
:100390007B490A6822F0807242EA00600860704778
:1003A0007748026A61F30002026270477448426A49
:1003B00061F3000242627047B0B52E490A68C2F389
:1003C00081032D4A022B08D07BBB0B6D9B052CD5DE
:1003D000CB6A9B0148BF2A4A27E0D1F800E0D1F858
:1003E00000C00B68C3F341731C01002B04F101052D
:1003F0002B4608BF0223CCF383440F2C08BF2B46A7
:1004000003EB040C5FEACE3301D41C4A02E00B6814
:100410009B0302D40CFB02F207E00B6DC3F3013324
:100420000233B2FBF3F202FB0CF2026015A50B687B
:10043000C3F30313EB5C174DDA4042600B68C3F360
:100440000223EB5C22FA03F3C3600B68C3F3C223FD
:10045000EB5C0425DA4082600B68096805EA936367
:10046000C1F3813119440CA3595CB2FBF1F1016174
:10047000B0BD00BF0410024000127A0000093D0028
:10048000006CDC0200000000000000000102030418
:1004900006070809EE10000802040608020C0810FE
:1004A000374A010C00F01F008958012202FA00F0BF
:1004B000084018BF0120704731490020030B0A682B
:1004C000022B03D8013012F40032F7D00868C0F3D1
:1004D0004040704700F01F020123000C012903FA7D
:1004E00002F3274A815814BF99431943815070473A
:1004F00010B5354C0028D4F800C00CD04CF4803333
:1005000001282360D4F800C014BF4CF400302CF450
:100510000030206006E02CF480302060E06A40F07B
:100520000070E062206861F3954020602068C1F3AC
:10053000021161F35E702060206820F0004040EA04
:10054000C270206010BD00BF0D48016841F001017C
:10055000016001688907FCD5416821F00301416011
:10056000416811F00C0FFBD10168064A114001608F
:100570000021416001634FF41F018160704700BF9B
:1005800000100240FFFFF2FE0F490A6860F301020B
:100590000A6000BF00BF00BF00BF00BF00BF00BFB8
:1005A00000BF00BF00BF00BF00BF00BF00BF00BF53
:1005B00000BF00BF00BF00BF00BF70470248006817
:1005C000C0F38100704700BF0410024040487047EC
:1005D000B0B50D4601460020C5B11446B2B1486918
:1005E0000BA1FFF7EBFD0146002079B938498A7964
:1005F00062B18888A04238BF0446002003E00A6840
:10060000125C2A540130A042F9D32046B0BD00BF8D
:100610007573617274310000D800002010B50B4C66
:100620002188A1F5FA7292087C2A01D8012107E0FD
:10063000A1F57A7189087C2904D800212180002144
:1006400000F006F820880130208010BDD000002086
:100650000A4638B1012818BF7047F4484FF40061CA
:1006600000F08CB8F1484FF4805100F087B800BF1B
:10067000E0B58DF807100DF107010122006800F0C8
:100680007FFB012002B080BD80B5006800F078FBE0
:10069000012080BD0E4800214FF4967201738260E4
:1006A0008171818001490160704700BF18020020FC
:1006B0000021002202E003689954013283889A42A3
:1006C000F9D3034800210173418181718180704712
:1006D000D80000202DE9FC416E4604460D46304608
:1006E00000F052F84FF000084FF402700427314632
:1006F0008DF80480ADF8060020898DF80570009013
:10070000606800F049F84FF400708DF804803146BD
:10071000ADF80600208A8DF805700090E06800F0C2
:100720003BF86A78AB78E968206800F071FA2068D5
:10073000012100F01CFB2068012100F00FFBE9788B
:10074000206800F0F1FA2068002100F041FA2978D1
:1007500094F91200002200F0FDF8206805490122FA
:1007600000F09CFA2068012100F01DFA012002B07F
:10077000BDE8F08105000C00416170471023002A9C
:1007800008BF1423C1507047024A4FF6FF71C0E9F9
:10079000001270470004000170B58B790A88032BA2
:1007A00009D05BB9497901F00F0C282912D018291A
:1007B00008BF02610FE04FF0000C0CE00C79C97922
:1007C00003F0080304F0040401F00301234403EBE5
:1007D000010C00E04261110618D0002301214FF006
:1007E0000F0E002410E001FA04F515420AD0066845
:1007F0000EFA03F526EA050505600CFA03F506680E
:100800003543056004330134082CECD1B2F5807F08
:100810001AD3120A002301214FF00F0E0024082CD6
:1008200008BF70BD01FA04F515420AD046680EFAF9
:1008300003F526EA050545600CFA03F546683543DD
:10084000456004330134EAE770BD000010B5C0F321
:100850000742C0F307234FF0FF3C0D4C0029C3F1C2
:1008600020030CFA02FEA3EB02032CFA03F303EAC3
:100870000E0C4FEA10631B5923EA0C0344EA106C78
:1008800002D0C0B290400343CCF8003010BD00BF8E
:100890000000014000F056FB00F034FB00F092FA3B
:1008A00000F0E8FA00F096FB00F0BAFA00F0D4FB92
:1008B00000F0B0FB00F032F801200121FFF7C8FE84
:1008C000FFF784FE044612A000F018F9124E054608
:1008D00000F034F80020FFF7A1FE012000F078FAC4
:1008E000A0790028F4D0A86AA2882168C3682846A5
:1008F00098472046FFF7DCFE308801303080C00783
:100900000CBF012100210120FFF7A2FEE0E700BF9C
:100910007573617274310000D200002010B57C4CF8
:10092000204600F0EBF809490860204600F080F806
:1009300001480121017010BD0800002003488022F9
:100940000068816A8B68024909681847D400002052
:100950000000002070B51F4E4FF0FF353368C3F321
:100960000223DC1E83F0070338BF0024042B28BFBA
:10097000042305FA03F3B0F1FF3F21EA030105FA6E
:1009800004F301FA04F122EA030241EA02014FEA08
:1009900001110CDD084A831883F8001300F01F01D1
:1009A0000123400903FA01F142F8201070BD00F064
:1009B0000F003044017270BD00E100E005494FF6C0
:1009C000FF030A681A4060F30A22034810430860D4
:1009D000704700BF0CED00E00000FA05B0B54D4CCB
:1009E00025204FF400714FF496720023A0744848FC
:1009F000254660614FF4806020820C48E0602181D0
:100A00004FF41651C4E90723616200F54051C4E96F
:100A10000010072045F8180FFFF73CFEA06A294692
:100A200002682046BDE8B040104700BF0008014002
:100A300080B53749FFF7C2FB00B180BDBDE88040FB
:100A4000FFF7CCBF10B5FFF7B9FD1D491D4C0228BB
:100A500008D058BB206D800528D5E06A800148BFCA
:100A60001A4923E0D4F800C020682368C3F3417317
:100A70001A01002B02F10102134608BF0223C0F342
:100A800083400F2808BF134618445FEACC3201D4D4
:100A90000D4902E02268920301D4414306E0226D31
:100AA000C2F301320232B1FBF2F14143084809A31B
:100AB00001602268C2F303129A5CD140016010BD4C
:100AC00000127A000410024000093D00006CDC02B4
:100AD000B800002000000000000000000102030434
:100AE00006070809044904280A6822F0040308BF1D
:100AF00042F004030B60704710E000E080B5044949
:100B0000FFF75CFB0349002818BF0021084680BDA1
:100B1000F61000088C000020C1628262416941F039
:100B2000010141617047026801F0070122F0700283
:100B300042EA011101607047026861F3000202603D
:100B40007047C943016170472AB1012A18BF704735
:100B5000C268114302E0C26822EA0101C160704725
:100B600002690A4204D0C06808421CBF01207047D5
:100B700000207047026801F0010122F0800242EA81
:100B8000C11101607047426801F0070122F0700254
:100B900042EA011141607047406880B270476FF3CC
:100BA0005F2141607047C26801F0010122F40052E8
:100BB00042EA4131C1607047CA0607BFC9430160BC
:100BC0000168406870470068084018BF01207047FE
:100BD000032988BF7047DFE801F00212060A416965
:100BE00021F480710EE0416921F4807102E04169D5
:100BF00041F480714161416941F4007106E041694D
:100C000041F480714161416921F400714161704793
:100C10002DE9F04186B001AD0446984616460F46D0
:100C20002846FFF7C9FB1A48844205D01948844278
:100C300002D01948844202D105F1080001E005F113
:100C40000C0000680A2100EB80004000B0FBF7F0C8
:100C5000B0FBF1F101EB8102A0EB4200042888BF58
:100C60000131A068C1EA0000A06006F00100E1685F
:100C700021F4805141EA0030E06008F0030021696E
:100C800021F4405141EA0030206106B0BDE8F08116
:100C900000380140006401400060014001F01F0C79
:100CA000090C0123012A0A5803FA0CF314BF9A43D2
:100CB0001A430A50704700004A1E072A10D910290B
:100CC0001CD020291DD040291ED080291ED0B1F56E
:100CD000807F1ED0B1F5007F1FD14269920A1AE0D1
:100CE000DFE802F0040A1B0A1B1B1B07C268120A7A
:100CF00011E0C268920612D442690CE0C26812097F
:100D000009E0C268520906E0C26803E0C268D2097D
:100D100001E002699209D20701D100207047006802
:100D2000084018BF0120704702290AD001290CD0C1
:100D300099B9C16821F40071C160C16821F4806172
:100D40000AE0C16841F4007102E0C16821F4007159
:100D5000C160C16841F48061C1607047C26801F040
:100D6000010122F0040242EA8101C1607047C268B9
:100D700001F0010122F0080242EAC101C16070479E
:100D8000F8B514460D46064630468021FFF71BFF96
:100D90000028F9D030468021FFF70EFF0027A74238
:100DA00008BFF8BDE95D3046FFF7F9FE3046402147
:100DB000FFF709FF0028F9D030464021FFF7FCFE7D
:100DC0000137ECE701480121FFF740BD0203103075
:100DD000B0B504464FF47A750CE0332C05D34CF2D1
:100DE000503000F00BF8323C04E004FB05F000F05A
:100DF00005F80024002CF0D1B0BD000010B58349E7
:100E0000064C09684843216823680A46994238BF5E
:100E100002F18072D21A8242F6D310BD18E000E0CF
:100E20002DE9FE4301AD2846FFF7AEFC0F4C4FF411
:100E3000C0514FF4C0592046FFF79EFC04F5806670
:100E400030214FF030083046FFF796FC084F20461F
:100E50002946CDE90197FFF79FFC30462946CDE9A9
:100E60000187FFF799FCBDE8FE8300BF0008014041
:100E700000041002B0B50320FFF7A0FD1F4C204D69
:100E800000212068C0F30220A84700010021207340
:100E90002068C0F30220A847000100216073206889
:100EA000C0F30220A84700010021A0732068C0F30E
:100EB0000220A84700010021E0742068C0F302204E
:100EC000A8470001002120752068C0F30220A84730
:100ED00000010F21A0752068C0F30220A84700017F
:100EE00007210022E0752520FFF734FD3620082178
:100EF0000022BDE8B040FFF72DBD00BF0CED00E0C3
:100F000007020008B0B50C4D4FF4C0100121A847EE
:100F10000A4C01212046A847601C0121A847E01C7B
:100F20000121A84704F10C000121A8470448012130
:100F30002A46BDE8B0401047D5040008020018005A
:100F400004001C0010B5FFF7FFFA04200121FFF791
:100F500005FA1F4C2046FFF7A3FA0128FAD1012019
:100F60000121FFF7FBF9FFF7A7FA0028FBD00020CB
:100F70000121FFF7F3F90120FFF792FA0128FAD1D6
:100F800000203B210122FFF7B3FA02200121FFF7E5
:100F9000E5F91920FFF784FA0128FAD10020FFF7BC
:100FA000B3F90420FFF7C4F90420FFF7B7F90120D3
:100FB000FFF7C8F90220FFF7E7FAFFF7FFFA022868
:100FC000FBD10020FFF7BEF9BDE81040FFF73ABDA6
:100FD00001002400B0B586B001A8FFF7EDF9029C2E
:100FE00000200025FFF77EFD07480849B4FBF0F01C
:100FF000086007486FF07F4185604160016841F0FB
:101000000101016006B0B0BD00127A00E8000020C6
:1010100010E000E010B50F4C00212046FFF783FDE3
:1010200020460121FFF7A6FD204640F2E731EF22DE
:10103000FFF772FD20460021FFF7A5FD20460121A4
:10104000FFF77AFD204601210122BDE81040FFF79D
:101050007BBD00BF001000407CB56D462846FFF701
:1010600093FB1848184C294601904FF40070A4F5E2
:10107000405600903046FFF78FFB144829460190F8
:101080004FF4806000903046FFF786FB20464FF417
:10109000E13100220023FFF7BBFD20460121FFF7CD
:1010A00066FE20460121FFF759FE20460021FFF78A
:1010B0003BFE20460021FFF78BFD20460121FFF774
:1010C00072FD7CBD000408020038014000040002EB
:1010D00002E008C8121F08C1002AFAD17047704701
:1010E000002001E001C1121F002AFBD1704700005F
:1010F0000000010203047573617274310000000086
:101100002011000800000020D0000000D0100008CE
:10111000F0110008D0000020780A0000E01000085C
:10112000EC0000202C010000010000000000000085
:1011300000000000000000000000000000000000AF
:10114000000000000000000000000000000000009F
:10115000000000000000000000000000000000008F
:10116000000000000000000000000000000000007F
:10117000000000000000000000000000000000006F
:10118000000000000000000000000000000000005F
:10119000000000000000000000000000000000004F
:1011A000000000000000000000000000000000003F
:1011B000000000000000000000000000000000002F
:1011C000000000000000000000000000000000001F
:1011D00000000000BC00002000127A00D5060008C4
:1011E00071060008D105000889060008000000000B
:040000050800018569
:00000001FF
